:10000000C2C00000D0C00000CEC00000CCC00000C4
:10001000CAC00000C8C00000C6C00000C4C00000C4
:10002000C2C00000C0C0000090C40000BCC00000FE
:10003000BAC00000B8C00000B6C00000B4C00000E4
:10004000B2C00000B0C00000AEC00000ACC00000F4
:10005000AAC00000A8C00000A6C00000A4C0000004
:10006000A2C00000A0C000009EC000009CC0000014
:100070009AC0000098C0000096C0000094C0000024
:1000800092C0000090C000008EC000008CC0000034
:1000900085C1000088C0000086C0000084C0000048
:1000A00082C0000080C000007EC000002403500019
:1000B0004F004B004B0045004E00200043004F0016
:1000C0004E00540052004F004C004C0045005200BE
:1000D00000001C0348004F0052004900200043006C
:1000E0004F002E002C004C00540044002E00000055
:1000F000040309040902290001010080FA0904002F
:10010000000203000000092111010001225600072E
:1001100005020340000507058103400005120100A8
:1001200002000000400D0F920000010102000105D5
:10013000010905A10115002501350045017501954D
:1001400010050919012910810205012507463B0107
:100150007504950165140939814265009501810195
:1001600026FF0046FF0009300931093209357508BC
:10017000950481020600FF0920950181020A2126CB
:1001800095089102C00011241FBECFEFDAE0DEBF58
:10019000CDBF21E0A0E0B1E001C01D92AF37B207B2
:1001A000E1F7E1D014C62CCF662321F1DC012C91BC
:1001B000209300016230F0F0EC91E09301012FEF09
:1001C0002E0F260F283010F067E06E1BDC01119611
:1001D00070E041E04E0F9D01281B390B26173707B1
:1001E0003CF4F0E02D91E559FE4F2083E42FF1CF50
:1001F000E0930101089580910001873070F4E0914F
:100200000001F0E0E559FE4F80818093BB008091B2
:1002100000018F5F8093000108951092BB00089544
:10022000EBE6F1E01082118288E0828380E883832C
:100230008483858386836BEF70E084ED90E099D0B2
:1002400081E5A0C084B7877F84BF0FB6F894A895D6
:1002500080916000886180936000109260000FBE02
:1002600090E080E80FB6F89480936100909361006D
:100270000FBE4EC30895089542E360EC82E081D240
:1002800042E361EC81E07DC20895FC0188E0DF017A
:100290001D928A95E9F7F894ABE6B1E02C9111969E
:1002A0008C91119790E0922B9183808312968C9180
:1002B0001297828313968C911397838314968C9153
:1002C0001497848315968C911597858316968C9137
:1002D000868378940895CF93DF93CDB7DEB72897C0
:1002E0000FB6F894DEBF0FBECDBF8091760184308B
:1002F00089F582E08093E9008091E80082FF12C0D6
:100300008091E80085FF09C040E050E067E070E0C0
:10031000CE01019629D18111F7CF8091E8008B772A
:100320008093E80081E08093E9008091E80080FFFD
:1003300011C0CE010196A9DF40E050E068E070E016
:10034000CE010196C7D08111F7CF8091E8008E775A
:100350008093E80028960FB6F894DEBF0FBECDBF9D
:10036000DF91CF9108956EDF5BDF7894B4DF15D510
:10037000FDCF90936A018093690170936801609347
:1003800067010895F8949BB193609BB9880F80939F
:10039000BA0085EC8093BC00789408951F920F9268
:1003A0000FB60F9211242F933F934F935F936F9348
:1003B0007F938F939F93AF93BF93EF93FF9380911E
:1003C000B900887F803A19F128F4882361F18038D8
:1003D00031F02BC0883AA9F0883B99F026C0E09113
:1003E0000201F0E08091BB00ED5FFE4F80838091C1
:1003F00002018436D0F4809102018F5F8093020164
:1004000014C0E0916701F091680109950EC06091F8
:100410000201E0916901F0916A0183E091E00995A0
:100420001092020102C01092BC0085EC8093BC00C7
:10043000FF91EF91BF91AF919F918F917F916F91BC
:100440005F914F913F912F910F900FBE0F901F9092
:100450001895292F332723303105E1F058F4213046
:10046000310599F02230310569F589E290E024EFF9
:1004700030E02CC02132310501F12232310511F575
:1004800086E590E02FE231E021C082E190E02DE1AD
:1004900031E01CC099278130910549F028F002977E
:1004A00089F4ECEAF0E005C0E0EFF0E002C0E2ED34
:1004B000F0E0849190E09F0109C089E090E026E09F
:1004C00031E004C080E090E020E030E0FA013183C8
:1004D00020830895CF92DF92EF92FF920F931F93A4
:1004E000CF93DF93EC018B017A019FD1811133C04F
:1004F000E114F10439F0F70180819181081B190B97
:10050000C80FD91FC12CD12C0115110519F18091EB
:10051000E80085FD16C08091E8008E778093E800A2
:100520003CD4E114F10449F0F70180819181C80EB7
:10053000D91ED182C08285E00EC077D1882321F3F5
:100540000AC089918093F10001501109FFEFCF1A81
:10055000DF0ADACF80E0DF91CF911F910F91FF90FA
:10056000EF90DF90CF900895CF92DF92EF92FF92BD
:100570000F931F93CF93DF93EC018B017A0155D139
:10058000811133C0E114F10439F0F70180819181C8
:10059000081B190BC80FD91FC12CD12C011511052F
:1005A00019F18091E80085FD16C08091E8008B77F5
:1005B0008093E800F2D3E114F10449F0F70180815F
:1005C0009181C80ED91ED182C08285E00EC02DD186
:1005D000882321F30AC08091F10089930150110909
:1005E000FFEFCF1ADF0ADACF80E0DF91CF911F91C2
:1005F0000F91FF90EF90DF90CF90089520917D01B3
:1006000030917E012617370748F06115710539F4DE
:100610002091E8002E772093E80001C0B901FC0189
:1006200020E06115710591F180917601882309F42C
:1006300040C0853009F43FC08091E80083FD3DC093
:100640008091E80082FD2FC08091E80080FFE9CF13
:100650002091F3008091F20090E0922B61157105DA
:1006600051F08034910538F421912093F1006150CC
:1006700071090196F3CF21E08034910509F020E063
:100680008091E8008E778093E800CBCF2111CCCF0A
:100690000AC080917601882361F0853061F08091F5
:1006A000E80083FD0AC08091E80082FFF2CF80E07D
:1006B000089582E0089583E0089581E008952091EF
:1006C0007D0130917E012617370748F061157105CD
:1006D00039F42091E8002E772093E80001C0B90199
:1006E000FC0120E06115710599F180917601882364
:1006F00009F441C0853009F440C08091E80083FDD1
:100700003EC08091E80082FD30C08091E80080FF0B
:10071000E9CF2091F3008091F20090E0922B6115D7
:10072000710559F08034910540F424912093F10033
:100730003196615071090196F2CF21E08034910524
:1007400009F020E08091E8008E778093E800CACF1E
:100750002111CBCF0AC080917601882361F08530CA
:1007600061F08091E80083FD0AC08091E80082FF7B
:10077000F2CF80E0089582E0089583E0089581E05B
:100780000895982F973068F59093E900981739F0FD
:100790007091EC002091ED005091F00003C0242FE7
:1007A000762F50E021FD02C09F5FECCF3091EB002F
:1007B0003E7F3093EB003091ED003D7F3093ED00B4
:1007C0003091EB0031603093EB007093EC0020939C
:1007D000ED005093F0002091EE0027FDE5CF80E082
:1007E00008958F708093E90081E0089580917701EA
:1007F00087FF11C08091E80082FD05C080917601DD
:100800008111F8CF11C08091E8008B770BC08091E7
:100810007601882349F08091E80080FFF8CF80912D
:10082000E8008E778093E80008952091E4003091ED
:10083000E50095E64091EC00842F817040FF23C0D5
:100840008091E80080FD1DC080917601882399F099
:10085000853099F08091EB0085FD11C04091E40056
:100860005091E5002417350729F3915011F09A01B2
:10087000E1CF84E0089582E0089583E0089581E067
:10088000089580E008954091E80042FFDDCF08958B
:100890000F931F93CF93DF934BD052D0C8EDD0E08E
:1008A00088818F77888388818068888388818F7D1D
:1008B000888319BC10927601109272011092740113
:1008C0001092730100EE10E0F80180818B7F80832D
:1008D00088818160888342E360E080E052DFE1EE5E
:1008E000F0E080818E7F8083E2EEF0E080818160A5
:1008F0008083808188608083F80180818E7F8083FF
:10090000888180618883DF91CF911F910F91089535
:10091000E8EDF0E080818F7E8083E7EDF0E080817C
:100920008160808384E082BF81E080937501B0CFD5
:10093000E8EDF0E080818E7F80831092E2000895E0
:100940001092DA001092E10008951F920F920FB6F4
:100950000F9211242F933F934F935F936F937F9345
:100960008F939F93AF93BF93EF93FF938091E10099
:1009700082FF0AC08091E20082FF06C08091E10000
:100980008B7F8093E10008D28091DA0080FF1DC048
:100990008091D80080FF19C08091DA008E7F80930B
:1009A000DA008091D90080FF0CC080E189BD82E12E
:1009B00089BD09B400FEFDCF81E0809376015ADC49
:1009C00004C019BC1092760156DC8091E10080FFD2
:1009D00018C08091E20080FF14C08091E2008E7FF9
:1009E0008093E2008091E20080618093E200809138
:1009F000D80080628093D80019BC85E0809376018E
:100A0000CBD18091E10084FF2FC08091E20084FF70
:100A10002BC080E189BD82E189BD09B400FEFDCF14
:100A20008091D8008F7D8093D8008091E1008F7EE7
:100A30008093E1008091E2008F7E8093E2008091BC
:100A4000E20081608093E20080917201882311F0BE
:100A500084E007C08091E30087FD02C081E001C00F
:100A600083E08093760198D18091E10083FF22C0DA
:100A70008091E20083FF1EC08091E100877F809318
:100A8000E10082E080937601109272018091E10092
:100A90008E7F8093E1008091E2008E7F8093E20060
:100AA0008091E20080618093E20042E360E080E0B8
:100AB00068DE72D1FF91EF91BF91AF919F918F91BD
:100AC0007F916F915F914F913F912F910F900FBE4A
:100AD0000F901F9018951F93CF93DF93CDB7DEB77C
:100AE000AA970FB6F894DEBF0FBECDBFE7E7F1E0DF
:100AF0008091F100819321E0EF37F207C9F7C4DB61
:100B00008091E80083FF30C1809177019091780156
:100B1000953009F483C030F49130A9F168F0933036
:100B200091F122C1983009F4EFC0993009F4FBC06B
:100B3000963009F019C194C0803821F0823809F04C
:100B400013C108C08091730190917401992389F0B9
:100B500082600FC080917B018F70873008F004C1E4
:100B60008093E9008091EB0085FB882780F9109243
:100B7000E9009091E800977F9093E8008093F1005E
:100B80001092F100CCC0282F2D7F09F0EDC08823F2
:100B900019F0823061F0E8C080917901813009F06C
:100BA000E3C0933009F080E0809374012EC08091FF
:100BB000790181112AC080917B018F702FEF280F5E
:100BC000263008F0D1C08093E9002091EB0020FF8F
:100BD0001CC0933021F48091EB00806214C090918E
:100BE000EB0090619093EB0021E030E0A90102C09E
:100BF000440F551F8A95E2F74093EA001092EA00ED
:100C00008091EB0088608093EB001092E900809166
:100C1000E800877F8093E800E9DDA6C08111A4C0C9
:100C2000109179011F778091E3008078812B809368
:100C3000E3008091E800877F8093E800D7DD809112
:100C4000E80080FFFCCF8091E30080688093E300A0
:100C5000111102C082E001C083E08093760184C05C
:100C60008058823008F080C08091790190917A019B
:100C70008C3D53E0950771F583E08A838AE289838E
:100C80004FB7F894DE01139620E03EE051E2E32FE7
:100C9000F0E050935700E49120FF03C0E295EF701D
:100CA0003F5FEF708E2F90E0EA3010F0C79601C0E2
:100CB000C0968D939D932F5F243149F74FBF80914C
:100CC000E800877F8093E8006AE270E0CE01019639
:100CD00095DC14C060917B0170917C01AE014F5F87
:100CE0005F4FB7DBBC01892B09F43EC09091E8004F
:100CF000977F9093E80089819A81E1DC8091E800F8
:100D00008B778093E80030C0803871F58091E800DF
:100D1000877F8093E800809172018093F100809139
:100D2000E8008E7777CF81111FC080917901909173
:100D30007A0199270297C4F48091E800877F809315
:100D4000E800809179018093720150DD80917201F9
:100D5000811106C08091E30087FD02C081E001C0DF
:100D600084E08093760188DA8091E80083FF0AC0EE
:100D70008091E800877F8093E8008091EB0080629B
:100D80008093EB00AA960FB6F894DEBF0FBECDBFDE
:100D9000DF91CF911F9108950895CF9380917601AF
:100DA000882399F0C091E900CF709091EC00892FD1
:100DB000817090FD80E8C82B1092E9008091E800D6
:100DC00083FD89DECF70C093E900CF910895F89438
:020DD000FFCF53
:00000001FF
